:020000040040BA
:1000000060BA00204147410027464100294641008F
:100010002B4641002D4641002F46410000000000C4
:100020000000000000000000000000004D5C4000E7
:100030003146410000000000FB5B4000C15B400016
:1000400033464100354641003746410039464100BC
:100050003B4641003D4641003F46410025464100A8
:10006000414641004346410045464100AD664000DF
:10007000B5664000BD664000474641004946410024
:1000800025464100254641004B4641004D46410072
:100090004F464100514641005346410055464100FC
:1000A00057464100594641005B4641005D464100CC
:1000B0005F4641006F3A410061464100634641009E
:1000C0006546410067464100E77D40002546410006
:1000D00003E011F8013B00F8013B13465A1E002BC8
:1000E000F7D1704701E000F8011B13465A1E002BA0
:1000F000F9D1704710B400231446621E002C05D0BD
:1001000010F8013B11F8014B1B1BF5D0184610BC31
:10011000704700E0401C0278002A01D08A42F9D1E1
:1001200010467047F8B504460D46E66AAE422FD039
:100130002079002820D00123324604F13001607874
:1001400001F024FE002801D00120F2BD0020207122
:10015000206AA169081886420ED2E77809E0A069F2
:1001600086190123324604F13001607801F00EFE59
:100170007F1EFFB2022FF2D2002D09D001232A46A2
:1001800004F13001607801F0D7FD0028DCD1E56290
:100190000020F2BD38B504460021FFF7C3FF05007B
:1001A0005BD12078032850D1A07A00284DD00020C0
:1001B000E0624FF40072014604F13000FFF792FF55
:1001C000552084F82E02AA2084F82F02522084F8A9
:1001D000300084F83100612084F83200412084F836
:1001E0003300722084F8140284F81502412084F848
:1001F0001602612084F81702206984F81802206929
:1002000080B2000A84F819022069000C84F81A02EE
:100210002069000E84F81B02E06884F81C02E06884
:1002200080B2000A84F81D02E068000C84F81E0207
:10023000E068000E84F81F020123626904F13001B6
:10024000607801F0A3FD0020A072002211466078C2
:1002500001F0C6FD002800D00125284632BD2DE959
:10026000F84304460D46022D02D3E069854201D3CE
:10027000012060E0266A2078012804D059D30328A1
:100280003BD027D355E005EB550806EB5821204617
:10029000FFF748FF00284CD140F2FF1909EA080097
:1002A000001990F8307008F1010806EB582120463B
:1002B000FFF738FF00283CD109EA0800001990F840
:1002C000300047EA0027E80701D5380933E0380550
:1002D000000D30E006EB15212046FFF723FF002834
:1002E00027D140F2FF1909EA4500001990F83110B2
:1002F00090F8300040EA01201DE006EBD5112046C1
:10030000FFF710FF002814D140F2FF1909EA850019
:10031000001900F23001CA788B781B0443EA0262AC
:10032000497842EA012190F83000084300010009B1
:1003300001E04FF0FF30BDE8F2832DE9F8430446B9
:100340000D461646022D02D3E069854201D30220F4
:100350006FE0276A2078012804D067D303284CD0A7
:1003600038D363E005EB550807EB58212046FFF72B
:10037000D9FE00285BD140F2FF1909EA08000019F4
:1003800000F230012846C00705D5087800F00F00BC
:1003900040EA061000E03046087008F1010801202C
:1003A000207107EB58212046FFF7BCFE00283ED104
:1003B00009EA0801091901F23001EA0701D53209F9
:1003C00006E00A7802F0F002330A03F00F031A4342
:1003D0000A702CE007EB15212046FFF7A3FE00284A
:1003E00025D140F2FF1909EA4501091981F8306069
:1003F000B6B2320A81F8312019E007EBD511204658
:10040000FFF790FE002812D140F2FF1909EA85019A
:10041000091981F8306001F23001324692B2120AB5
:100420004A70320C8A70320ECA7000E0022001213C
:100430002171BDE8F283F8B504460E46022E02D3C0
:10044000E069864201D3022521E0002508E0206909
:1004500010F1010F03D0401C20610120A0723E4624
:10046000E069864213D231462046FFF7F8FE0700C6
:100470000DD0012FE7D017F1010F01D1012506E0C2
:10048000002231462046FFF758FF0500DFD02846FE
:10049000F2BD2DE9F04105460E00EF6909D1D5F80E
:1004A0000C80B8F1000F01D0B8450BD34FF0010814
:1004B00008E0FFF7D4FE022801D201202EE0B84266
:1004C0002CD3B0464446641CBC4205D30224B8F188
:1004D000020F01D2002021E021462846FFF7BFFE8F
:1004E00000281DD16FF0704221462846FFF725FFF6
:1004F00000281DD1002E06D0224631462846FFF79F
:100500001CFF002814D1EC60286910F1010F04D001
:100510002869401E28610120A8722046BDE8F081AC
:1005200010F1010FFAD00128F8D04445CBD1D1E722
:100530004FF0FF30F2E7891EC269921E914201D34B
:10054000002070478278806A02FB0100704770B516
:1005500004460D46E580A068012803D02168C969DA
:10056000884201D3022070BD002805D12168097896
:10057000032901D12068406A00280BD10020E060E7
:10058000206800898542EDD22068406A00EB151092
:1005900020611EE0216889780E0106E00228E1D37F
:1005A0002168C9698842DDD2AD1BADB2B54208DB16
:1005B00001462068FFF753FE10F1010FEED1012034
:1005C00070BDE06001462068FFF7B5FF00EB151035
:1005D000206105F00F00216801EB401000F23000AF
:1005E0006061002070BDF8B504460D46E088461CE9
:1005F000B6B2002E02D02069002801D10420F2BD3D
:1006000016F00F0063D12069401C2061E0680028CB
:10061000206803D10089864259DBEFE78078401ECD
:1006200010EA161F53D1E1682068FFF718FE07464D
:10063000022F01D20220F2BD17F1010F01D10120DA
:10064000F2BD2068C06987423BD3002DD6D0E16857
:100650002068FFF71EFF070001D10720F2BD012F20
:10066000E8D017F1010FEAD000212068FFF75AFD0A
:100670000028E4D14FF40072002120683030FFF7E9
:1006800031FD39462068FFF756FF2168C862002512
:100690000DE00121017100212068FFF743FD0028D2
:1006A000CDD12068C06A401C2168C8626D1C2068DA
:1006B0008078EDB285422068EBD3C06A401B216888
:1006C000C862E76039462068FFF735FF2061E680A1
:1006D00006F00F00216801EB401000F2300060616D
:1006E0000020F2BD2DE9F04104460D46287800F0C7
:1006F000BF00401E0D2101FB00F600270FF63C4015
:10070000385C41194978405D40EA012001F0F4FB72
:100710008046FF2E06DA34F8160001F0EDFB761C59
:10072000804501D0002006E07F1C0D2F02DAB8F1D1
:10073000000FE3D10120BDE8F081F0B44B730F232B
:10074000CB7200230B738B76CB76531E0D24634341
:10075000002425464FF6FF76B44202D030F813400D
:100760005B1C0FF6D837EF5D7C547F184FEA242CC2
:1007700087F801C0002C00D134466D1C0D2DEBDB39
:10078000B44203D030F81300002801D142F04002F7
:100790000A70F0BC70477CB5044616461D460B2215
:1007A000FFF796FC062D09D3ADB2E80300EB550028
:1007B00031880D1836F8020F0028F5D107200A22DB
:1007C00000ABADB2294691FBF2F502FB15113031B9
:1007D000C154401EADB2002DF3D17E21C154002181
:1007E00000E0491C814202DA0A5D202AF9D10A465A
:1007F000511C082802DAC55C401C00E02025155574
:100800000829F4DB73BD00210B220B46C90101EB63
:10081000530110F8013B5918C9B2521EF5D10846D0
:1008200070472DE9F04705460021FFF790FE0400D0
:1008300002D02046BDE8F087FF263746B046A869BB
:10084000C07A00F0010929692868FFF76BFC0400F1
:10085000EFD1D5F814A09AF80000002801D10424A3
:10086000E7E79AF80B1001F03F01E52804D00A46AB
:10087000120709D50F2907D0B04600212846FFF7F7
:10088000B2FE0400D5D1DEE70F2920D1E9690029A5
:10089000F3D00146490606D59AF80D7000F0BF0066
:1008A0008046E98829845FFA88F84045E4D19AF8BF
:1008B0000D008742E0D1B9F1000F05D05146E8693B
:1008C000FFF710FF0028D7D0A8F10108D5E75FFA9D
:1008D00088F8B8F1000F04D15046FFF794FF874223
:1008E00002D04FF6FF702884B9F1000F03D0B8F1A1
:1008F000000FC1D19DE70B22A9695046FFF7FAFB13
:100900000028B9D195E72DE9FE430446D4F81880B4
:10091000E7690C22414600A8FFF7DAFB0DF1000958
:1009200099F80B00C00723D5002088F80B00E06180
:10093000012500E06D1CADB2642D0AD22B463A466B
:1009400000A94046FFF727FF2046FFF76AFF060091
:10095000F0D0642D02D10720BDE8FE83F6B2042E4C
:1009600001D03046F8E799F80B0088F80B00E761F2
:1009700099F80B0080070CD5002000E0401C80B2E5
:1009800037F810100029F9D119300D2190FBF1F73B
:1009900000E0012700212046FFF7D9FD0600E0D145
:1009A0004FF00008454621692068FFF7BBFB0600B1
:1009B00016D160690078E52801D0002809D1002D02
:1009C00001D1B4F806806D1CADB2BFB2BD4201D1F9
:1009D00006E0002501212046FFF705FE0600E2D0D3
:1009E000002E27D1BFB2022F24D341462046FFF765
:1009F000AEFD06001ED1A069FFF705FF05467F1E6C
:100A000021692068FFF78EFB060013D12B463A467A
:100A1000D2B26169E069FFF790FE2068012101719F
:100A200000212046FFF7DFFD060003D17F1EBFB285
:100A3000002FE5D1002E94D121692068FFF772FBC9
:100A400006008ED16569202200212846FFF74AFB67
:100A50000B22A1692846FFF73BFBA069C07A00F092
:100A6000180028732068012101717AE72DE9F14F00
:100A7000884600242546D8F80090C66911E0012177
:100A8000F8B201F017FA07001FD0802F06DA3946B6
:100A9000DFF89805FFF73DFB002816D126F8147003
:100AA000641C15F809706D1C202F03DB2F2F01D05B
:100AB0005C2F08D105EB0900C8F80000202F06DAEA
:100AC0004FF0040807E0FF2CD9DB062083E04FF04D
:100AD000000800E0641E002C07D006EB440030F84C
:100AE000027C202FF6D02E2FF4D0002CEDD0002049
:100AF00026F814000B22202100988069FFF7F2FAF3
:100B0000002500E06D1C36F815002028FAD02E28AC
:100B1000F8D0002D03D048F0030800E0641E002C3C
:100B200005D006EB440030F8020C2E28F6D14FF029
:100B3000000BD9464FF0080A03E048F003085FFABB
:100B400088F836F815706D1C002F10D0202FF4D0C7
:100B50002E2F01D1A542F0D1D34501DAA5424CD1C7
:100B6000BAF10B0F39D148F003085FFA88F8009802
:100B700080690078E52803D100988069052101701B
:100B8000BAF1080F01D14FEA89095FFA89F909F032
:100B90000C000C2803D009F00300032803D148F00F
:100BA00002085FFA88F8404680070FD409F0030076
:100BB000012803D148F010085FFA88F809F00C000A
:100BC000042803D148F008085FFA88F80098806983
:100BD00080F80B800020BDE8F28FA54203D048F0DA
:100BE00003085FFA88F8AC42C1DB25464FF0080BDA
:100BF0004FF00B0A4FEA8909A3E7802F0EDB002193
:100C0000384601F057F9070004D00FF6E410381801
:100C100010F8807C48F002085FFA88F8002F06D0B0
:100C200039460FF6C410FFF774FA002805D05F2785
:100C300048F003085FFA88F80EE0A7F141001A288F
:100C400002D249F0020907E0A7F161001A2803D295
:100C500049F00109203FBFB2009880690BF800708D
:100C60000BF1010B6DE713B50446084600782F28F9
:100C700003D0084600785C2802D10846401C019049
:100C80000020A06001980078202811D20021204681
:100C9000FFF75DFC0021616116BD417D027D42EAE6
:100CA0000121C27E807E40EA022040EA0140A0602D
:100CB00001A92046FFF7DAFE002815D12046FFF7EC
:100CC000B0FDA169C97A01F00401002805D004280B
:100CD0000AD1002908D1052016BD002904D1606978
:100CE000C17AC906D9D4052016BD38B504460123FA
:100CF0000A4604F13001607801F01EF8002801D0A6
:100D0000032032BD94F82F0294F82E1241EA0020FD
:100D10004AF65521884201D0022032BDC44D03223B
:100D2000294604F16600FFF7E5F9002801D100200B
:100D300032BD0322294604F18200FFF7DBF90028C7
:100D400003D194F858000006F1D5012032BDF8B562
:100D5000164602681378303B0A2B05D254783A2C99
:100D600002D1921C026000E00023002B01D00B2076
:100D7000F2BDB04C65680D60002D01D10C20F2BDB4
:100D8000287800280DD0687800F0CEFF0146C9070A
:100D900007D4002E03D0400701D50A20F2BD002061
:100DA000F2BD00202870687000F0B6FF0146C90748
:100DB00001D50320F2BD002E01D04007EDD400265E
:100DC00031462846FFF791FF0746012F14D105F25F
:100DD000EE10017900290FD0C17A827A120442EA1A
:100DE0000161427A41EA0221007A40EA0106314675
:100DF0002846FFF77AFF0746032F01D10120F2BDF5
:100E0000002F09D195F83C0095F83B1041EA0020ED
:100E10004FF40071884201D00D20F2BD95F84700D3
:100E200095F8461051EA00200DD195F8570095F835
:100E30005610090441EA006095F8551040EA012077
:100E400095F854100843A86195F84010E97048439C
:100E500095F83F1095F83E2042EA01218919296250
:100E600095F83D10A97095F8421095F8412042EA96
:100E70000121298195F8441095F8432052EA012177
:100E80000DD195F8531095F85220120442EA0161F1
:100E900095F8512041EA022195F85020114395F828
:100EA0003F2095F83E3043EA0222891A091A2A891E
:100EB000A1EB1211AA78B1FBF2F1891CE9610127BB
:100EC00040F6F772914200D302274FF6F772914233
:100ED00000D30327032F0FD195F85F1095F85E20FC
:100EE000120442EA016195F85D2041EA022195F879
:100EF0005C201143696202E0296A41186962296A2B
:100F00004018298900EB1110A8624FF0FF302861CA
:100F100000202871032F5BD1A87295F8610095F825
:100F2000601041EA0020801968610123024605F142
:100F30003001687800F000FF002849D195F82F02B1
:100F400095F82E1241EA00204AF6552188423FD1F9
:100F500095F8330095F83210090441EA006095F8DD
:100F6000311040EA012095F8301008433249884298
:100F70002ED195F8170295F81612090441EA00607F
:100F800095F8151240EA012095F8141208432B49F0
:100F900088421DD195F81F0295F81E12090441EAF6
:100FA000006095F81D1240EA012095F81C120843D4
:100FB000E86095F81B0295F81A12090441EA0060EE
:100FC00095F8191240EA012095F818120843286193
:100FD0002F700020E8622088401C2080E8800020DC
:100FE000F2BD80B5002805D00278002A02D0C28860
:100FF0008A4201D0092002BD407800F095FEC0076A
:1010000001D5032002BD002002BD002801D00B2025
:10101000704708484268002A01D000231370002955
:1010200001D000220A70416000207047DC154000AA
:101030007016400028B40020525261417272416122
:101040002DE9F241ADF50D7D04460020206002F04F
:101050001F0505F01E0200A98DA8FFF778FE0028E5
:1010600040F0A08009A806900CA807908D9900A8D0
:10107000FFF7F9FD1C210D425DD000280BD004289C
:1010800002D100A8FFF73FFC002840F08B8045F01C
:101090000805059E37E0680701D5082082E0059E17
:1010A000002E03D0F07A1121084201D0072079E008
:1010B000280728D5707D317D41EA0020F17EB27E7F
:1010C00042EA012141EA0047002030757075B07690
:1010D000F07630777077B077F07700980121017162
:1010E0000098D0F82C80002F07D03946FFF7A3F9DD
:1010F000002857D10098791EC16041460098FFF73B
:1011000011F800284ED1280724D50020F07200F0F5
:101110009DFE804686F80E8080B2000AF0734FEA8A
:10112000184030744FEA1860707400980121017102
:1011300045F020050EE0002834D1059E002E02D097
:10114000F07AC00601D504202CE0A80702D5F07A79
:10115000C007ABD40098C06AE06105982062A57111
:10116000707D317D41EA0020F17EB27E42EA0121AC
:1011700041EA00402061F07FB17F090441EA00604C
:10118000717F40EA0120317F0843E0600020A060C9
:10119000FF20E0710020A061009820600098C088C6
:1011A000A08000200DF50E7DBDE8F0812DE9F0470F
:1011B000054616461F460C4600203860A988286858
:1011C000FFF70FFF002840F0B780A879000601D58F
:1011D0000220B1E0A879C00701D40720ACE0E8689C
:1011E000A968401AB04241D806463FE0A8794006B7
:1011F0000DD50123AA6905F124012868407800F083
:10120000C5FD002853D1A87900F0BF00A871A869D6
:10121000484509D001234A4605F124012868407851
:1012200000F08AFD002842D1C5F81890E879401CEA
:10123000E8714FF40070A96808EA0101401AB1464C
:10124000864200D981464A46A86808EA000040194B
:1012500000F124012046FEF73BFF4C44A8684844B7
:10126000A860386848443860A6EB0906002E62D0B2
:1012700040F2FF18A86810EA080FDAD1E879296867
:10128000897888421CD3A868002801D1286903E026
:1012900069692868FEF7E3FF022805D2A87940F0C3
:1012A0008000A871022047E010F1010F05D1A87954
:1012B00040F08000A87101203EE068610020E871E4
:1012C00069692868FFF737F98146B9F1000FE5D061
:1012D000E87981445FEA562A88D028688078E979DD
:1012E0005144884204D228688078E979A0EB010A49
:1012F0005346DBB24A4621462868407800F01CFD80
:101300000028D4D1A87940060FD5A869A0EB090020
:1013100050450AD24FF4007205F12401A869A0EBF0
:10132000090004EB4020FEF7D3FEE8795044E87151
:101330004FEA4A2991E70020BDE8F087010305073D
:10134000090E10121416181C1E00000038B50446B1
:10135000A1882068FFF745FE00284ED1A1798906B3
:101360004BD5A07940060FD50123A26904F12401D1
:101370002068407800F00AFD002801D0012032BD2D
:10138000A07900F0BF00A071E1692068FEF7CAFEF5
:10139000002832D1256AE87A40F02000E872E0683F
:1013A0002877E06880B2000A6877E068000CA877C8
:1013B000E068000EE8772069A876206980B2000A0C
:1013C000E8762069000C28752069000C000A687511
:1013D00000F03CFDA875014689B2090AE975010CC7
:1013E0002976000E6876A07900F0DF00A0712068F1
:1013F000012101712068FEF7CDFE32BD10B5044613
:10140000FFF7A4FF002801D10021216010BD2DE9C4
:10141000F04104460D46A1882068FFF7E2FD060072
:1014200002D03046BDE8F081A079000601D5022047
:10143000F8E7E068A84203D2A079800700D4E56805
:10144000A06800273946A160FF21E171002D60D01E
:10145000216889784FEA412800280FD0401EB0FB50
:10146000F8F16A1EB2FBF8F28A4207D3A8F1010133
:101470008843A060A0682D1A606919E020690028DF
:1014800015D139462068FFF704F8012805D1A07965
:1014900040F08000A0710220C4E710F1010F05D1D7
:1014A000A07940F08000A0710120BBE7206160615D
:1014B000002811D12DE0FEF7D2FE10F1010FEFD080
:1014C0000228E4D32168C9698842E0D26061A1683A
:1014D0004144A160A5EB0805A84509D2A179890777
:1014E00001462068E7D5FEF7D4FF0028E5D1454640
:1014F000A1686918A160690AE171E90509D001468E
:101500002068FFF718F80700C1D0E079C719401C20
:10151000E071A068C0051ED0A06987421BD0A079E9
:1015200040060DD50123A26904F12401206840780A
:1015300000F02CFC0028B3D1A07900F0BF00A0710E
:1015400001233A4604F124012068407800F0F4FBBE
:101550000028A5D1A761E068A1688842BFF461AF07
:101560000846E060A07940F02000A07159E712B56C
:10157000ADF5037D04460022214683A8FFF7E7FB73
:10158000002828D100A8A06103A8E0618399204623
:10159000FFF769FB00281BD1616900290FD0CA7AC7
:1015A000D2060BD54A7D0B7D43EA0222CB7E897E93
:1015B00041EA032141EA0241A16000E00520002840
:1015C00006D12068C088A08000212046FEF7BFFF1A
:1015D000042800D105200DF5047D10BD222A3A3CD7
:1015E0003E3F7C7F000000002B2C3B5B3D5D0000FC
:1015F000809A90B68EB78F80D2D3D4D8D7DE8E8F14
:10160000909292E299E3EAEB59999A9D9C9D9E9F54
:10161000B5D6E0E9A5A5A6A7A8A9AAABAC21AEAF0F
:10162000B0B1B2B3B4B5B6B7B8B9BABBBCBDBEBF42
:10163000C0C1C2C3C4C5C7C7C8C9CACBCCCDCECF31
:10164000D0D1D2D3D4D5D6D7D8D9DADBDCDDDEDF22
:10165000E0E1E2E3E5E5E6E7E7E9EAEBEDEDEEEF11
:10166000F0F1F2F3F4F5F6F7F8F9FAFBFCFDFEFF02
:10167000464154002DE9F24F86B01446002801D0AF
:101680000B2003E30846022801D30E20FEE2DFF818
:10169000040640680590002801D10C20F6E20021E4
:1016A0000170084600F038FB0146C90701D5032048
:1016B000ECE2400701D50A20E8E201AA012100205E
:1016C00000F08EFB0028E0D10198B0F5FA6FDCD372
:1016D000B0F1FA6F02D94FF0FA6001909DF818004E
:1016E000002802D13F20029001E0002002900198E2
:1016F0000299401A01904FF400700146224600E022
:101700004900B1F5004F01D89142F9D1914200D082
:101710000024002C1AD10199024640F2012301E075
:10172000490852089A42FBD2002200920FF29853C5
:1017300002E0009A521C0092009A53F82220914233
:10174000F7D300990FF2AC5232F8114001468C42A7
:1017500000D20446640AA4B2A0460198B0FBF8F592
:10176000012640F6F5794D4500D302264FF6F57B6C
:101770005D4500D303263046012802D002280ED052
:1017800018E005EB4500401C400800F20220470A23
:101790009DF81800401C04902020039015E068007C
:1017A00000F20320470A9DF81800401C04902020F6
:1017B00003900AE0A80000F20720470A9DF81800ED
:1017C000C0F121000490002003900298049901EBDD
:1017D000000A07EB0A0003990D1800AA0321002054
:1017E00000F0FEFA00287FF450AF00984019401E28
:1017F0000099491E884300900098C019471B019822
:101800000499401AC01B0399401AB0FBF8F5022E48
:1018100002D14D45FFF439AF032E02D15D45FFF4EF
:1018200034AF9DF81800002872D10298019901EB9D
:10183000000B4FF40072002105983030FEF752FC87
:10184000059800F2EE18802088F80000012088F842
:10185000010088F80200002088F803004FF0FF091B
:10186000DFF8340483450DD23F20BBFBF0F0B0FB22
:10187000F9FB88F807B04FEA9B0040F03F0088F87A
:10188000060003E088F8069088F80790FE2088F8A4
:101890000500032E09D00198B0F5803F01D2042045
:1018A00000E0062088F8040002E00C2088F804001C
:1018B0003F2088F80800002088F8090088F80A000E
:1018C00088F80B00019888F80C00019880B2000A93
:1018D00088F80D000198000C88F80E000198000EA1
:1018E00088F80F00552088F84000AA2088F84100A9
:1018F00001230022059800F13001104600F046FA5D
:10190000002801D00120C1E1F8208DF8180002E084
:10191000F0208DF81800059800F230084FF400729E
:1019200000214046FEF7DEFBEB2088F80000FE2099
:1019300088F80100902088F80200002088F8030051
:1019400088F80B00022088F80C0088F80D400498F5
:1019500088F80E00049880B2000A88F80F00012071
:1019600088F810000398000188F81100039880B2ED
:10197000000988F812000198B0F5803F07D288F876
:101980001300019880B2000A88F814000EE088F86D
:101990002000019880B2000A88F821000198000C0C
:1019A00088F822000198000E88F823009DF818009E
:1019B00088F815003F2088F81800002088F81900E2
:1019C0004FF0FF0988F81A9088F81B00029888F8F1
:1019D0001C00029880B2000A88F81D000298000CD2
:1019E00088F81E000298000E88F81F0000F02EFAFA
:1019F0000090384680B2000A032E009920D088F863
:101A00002710009989B2090A88F828100099090C52
:101A100088F829100099090E88F82A1088F816709D
:101A200088F81700802088F82400292088F82600EC
:101A300013220FF26C2108F12B00FEF749FB3BE06B
:101A400088F84310009989B2090A88F8441000996F
:101A5000090C88F845100099090E88F8461088F896
:101A6000247088F82500380C88F82600380E88F88D
:101A70002700022088F82C00002088F82D0088F824
:101A80002E0088F82F00012088F83000002088F808
:101A90003100062088F83200002088F833008020CA
:101AA00088F84000292088F8420013220FF2042110
:101AB00008F14700FEF70CFB552088F8FE01AA202C
:101AC00088F8FF010123029A4146002000F05EF9E8
:101AD00000287FF417AF032E06D101230298821D40
:101AE0004146002000F052F94FF0000B12E00123B4
:101AF00052464146002000F049F90AF1010A002847
:101B00007FF400AF0098401C00900098B842EED3DC
:101B10004FF0010BBBF1000F52D14FF400720021C6
:101B20004046FEF7DFFA032E1CD0012E02D15B489F
:101B3000009002E06FF0FF00009000989DF81810F0
:101B40000843009088F80000009880B2000A88F8E6
:101B500001000098000C88F802000098000E88F838
:101B6000030019E0F82088F8000088F8019088F850
:101B7000029088F8039088F8049088F8059088F817
:101B8000069088F8079088F8089088F8099088F8F7
:101B90000A900F2088F80B0001235246414600208E
:101BA00000F0F4F80AF1010A00287FF4ABAE4FF41C
:101BB000007200214046FEF795FA01200090A4E74C
:101BC000032E01D1A34601E0DDF80CB001235246FB
:101BD0004146002000F0DAF80AF1010A00287FF4FB
:101BE00091AEABF1010B5FFA8BFBBBF1000FEDD1B6
:101BF000032E42D1552088F8FE01AA2088F8FF0163
:101C0000522088F8000088F80100612088F802005E
:101C1000412088F80300722088F8E40188F8E50183
:101C2000412088F8E601612088F8E7012846401E37
:101C300088F8E8012846401E80B2000A88F8E901C9
:101C4000681E010C88F8EA11000E88F8EB0188F88C
:101C5000EC9188F8ED9188F8EE9188F8EF910123E6
:101C60000298421C4146002000F090F8012302989F
:101C7000C21D4146002000F089F8002211460846A6
:101C800000F0AEF8401E8041C043C00F07B0BDE871
:101C9000F08F000028B400200004FB0000FFFF00CC
:101CA0004E4F204E414D45202020204641542020BB
:101CB000202020004E4F204E414D45202020204620
:101CC000415433322020200000401F0000A00F00AC
:101CD00000D0070000E8030000F4010000FA000053
:101CE000007D0000803E0000401F0000A00F0000AB
:101CF00000000000008000400020001000080040AC
:101D000000200010000800040002000041690029C2
:101D100000D00847002070470121012801D9001F89
:101D200000D10021084670470121012801D9001F78
:101D300000D100210846704730B583B004460846FC
:101D40001146002C0AD1424CE2694FF40075AA42B8
:101D50000AD2B5FBF2F25143534305E00FF2F8000B
:101D600000F03CFB01203EBD0022019200920246A1
:101D7000204600F079FB002801D100203EBD01463D
:101D80000FF2F40000F02AFB01203EBD30B583B015
:101D9000044608461146002C0AD12D4CE2694FF446
:101DA0000075AA420AD2B5FBF2F25143534305E053
:101DB0000FF2A40000F012FB01203EBD00220192B0
:101DC00000920246204600F02AFB002801D10020A4
:101DD0003EBD01460FF2BC0000F000FB01203EBDFD
:101DE00080B503460420002B0AD1002929D00229FE
:101DF0001CD00BD3032928D101201080002002BD64
:101E00000FF2540000F0EAFA012002BD1048416AC6
:101E1000C0694FF40073984205D2B3FBF0F0B1FBF8
:101E2000F0F0106000E01160002002BD0848C069B9
:101E30004FF40071884202D208461080F4E7108007
:101E4000F2E70348FFF762FF002002BD0148704738
:101E5000E0360020BD8D2F3B2D452D206469736B2E
:101E60005F726561643A20556E6B6E6F776E2064A9
:101E7000726976650A0D00002D452D2052544D459E
:101E80004449415F526561642070623A2030782590
:101E9000580A0D002D452D2052544D454449415FAF
:101EA00057726974652070623A20307825580A0D9F
:101EB0000000000080281ED300290DD04FF480714F
:101EC000884201D3002070470FF2500101EB40001F
:101ED000A0F5807000887047002100E0491C89B29D
:101EE000802905D20FF2340232F811209042F5D148
:101EF00001F18000C0B27047002100E0491C0FF2E0
:101F00001C1232F81120002A01D09042F6D1002A8A
:101F100003D00FF2E82030F811007047C700FC0032
:101F2000E900E200E400E000E500E700EA00EB0081
:101F3000E800EF00EE00EC00C400C500C900E600B8
:101F4000C600F400F600F200FB00F900FF00D60026
:101F5000DC00F800A300D800D7009201E100ED00FA
:101F6000F300FA00F100D100AA00BA00BF00AE00F1
:101F7000AC00BD00BC00A100AB00BB0091259225C8
:101F8000932502252425C100C200C000A9006325B5
:101F9000512557255D25A200A500102514253425BF
:101FA0002C251C2500253C25E300C3005A2554257B
:101FB00069256625602550256C25A400F000D00019
:101FC000CA00CB00C8003101CD00CE00CF001825DB
:101FD0000C2588258425A600CC008025D300DF00B1
:101FE000D400D200F500D500B500FE00DE00DA0016
:101FF000DB00D900FD00DD00AF00B400AD00B10092
:102000001720BE00B600A700F700B800B000A80077
:10201000B700B900B300B200A025A00061006200C3
:1020200063006400650066006700680069006A007C
:102030006B006C006D006E006F007000710072002C
:1020400073007400750076007700780079007A00DC
:10205000A100A200A300A500AC00AF00E000E100D9
:10206000E200E300E400E500E600E700E800E90044
:10207000EA00EB00EC00ED00EE00EF00F000F100F4
:10208000F200F300F400F500F600F800F900FA00A1
:10209000FB00FC00FD00FE00FF0001010301050143
:1020A000070109010B010D010F01110113011501B8
:1020B000170119011B011D011F0121012301250128
:1020C000270129012B012D012F0131013301350198
:1020D00037013A013C013E01400142014401460101
:1020E00048014B014D014F01510153015501570169
:1020F00059015B015D015F016101630165016701D8
:1021000069016B016D016F01710173017501770147
:102110007A017C017E019201B103B203B303B403DF
:10212000B503B603B703B803B903BA03BB03BC03D3
:10213000BD03BE03BF03C003C103C303C403C50380
:10214000C603C703C803C903CA03300431043204F9
:1021500033043404350436043704380439043A04AB
:102160003B043C043D043E043F044004410442045B
:1021700043044404450446044704480449044A040B
:102180004B044C044D044E044F04510452045304B8
:102190005404550456045704580459045A045B0463
:1021A0005C045E045F04702171217221732174212B
:1021B000752176217721782179217A217B217C2153
:1021C0007D217E217F2141FF42FF43FF44FF45FFE8
:1021D00046FF47FF48FF49FF4AFF4BFF4CFF4DFFBB
:1021E0004EFF4FFF50FF51FF52FF53FF54FF55FF6B
:1021F00056FF57FF58FF59FF5AFF000041004200A9
:1022000043004400450046004700480049004A009A
:102210004B004C004D004E004F005000510052004A
:1022200053005400550056005700580059005A00FA
:102230002100E0FFE1FFE5FFE2FFE3FFC000C10096
:10224000C200C300C400C500C600C700C800C90062
:10225000CA00CB00CC00CD00CE00CF00D000D10012
:10226000D200D300D400D500D600D800D900DA00BF
:10227000DB00DC00DD00DE0078010001020104016A
:10228000060108010A010C010E01100112011401DE
:10229000160118011A011C011E012001220124014E
:1022A000260128012A012C012E01300132013401BE
:1022B000360139013B013D013F0141014301450127
:1022C00047014A014C014E0150015201540156018F
:1022D00058015A015C015E016001620164016601FE
:1022E00068016A016C016E0170017201740176016E
:1022F00079017B017D019101910392039303940382
:10230000950396039703980399039A039B039C03F1
:102310009D039E039F03A003A103A303A403A5039E
:10232000A603A703A803A903AA0310041104120417
:1023300013041404150416041704180419041A04C9
:102340001B041C041D041E041F0420042104220479
:1023500023042404250426042704280429042A0429
:102360002B042C042D042E042F0401040204030466
:102370000404050406040704080409040A040B0401
:102380000C040E040F046021612162216321642189
:10239000652166216721682169216A216B216C21F1
:1023A0006D216E216F2121FF22FF23FF24FF25FFD6
:1023B00026FF27FF28FF29FF2AFF2BFF2CFF2DFFD9
:1023C0002EFF2FFF30FF31FF32FF33FF34FF35FF89
:1023D00036FF37FF38FF39FF3AFF00000EB400B573
:1023E00082B003A9009100AB024601210348784462
:1023F0000A3000F08BF806BC5DF810FB0B230100DF
:1024000010B5044601F026F86064002805D10FF2EB
:10241000CC00FFF7E3FF012010BD002010BD2DE927
:10242000F04383B004460D4616461F46DDF828806B
:10243000DDF82C9000231A461146606C01F0BDF8BF
:10244000CDF80490CDF800803B4632462946204620
:102450002568A847054600231A461146606C01F01E
:102460001DF82846BDE8FE832DE9F04383B00446FD
:102470000D4616461F46DDF82880DDF82C90002317
:102480001A461146606C01F098F8CDF80490CDF82A
:1024900000803B463246294620466568A8470546E7
:1024A00000231A461146606C00F0F8FF2846BDE88C
:1024B000FE8338B5044600231A461146606C01F0CD
:1024C0007CF8204661698847054600231A46114674
:1024D000606C00F0E3FF284632BD00002D452D2042
:1024E000556E61626C6520746F20616C6C6F636106
:1024F00074652061206D7574657820666F72204E5A
:10250000616E64206D656469610D0A002DE9F04F0C
:10251000A5B017461C460FF68C65D5E90023CDE91A
:10252000122303AD6860A9600020E86214AE4FF08A
:102530000A096FF0004800E057440020ADF802009F
:1025400012AB4FF0FF3239460DF1020001F052F9A3
:102550008246BAF1010F08DA3878B0F1010A6AEB65
:102560000A0A6FEA0A004FEAD07ABDF8020025286D
:102570000CBFAAF101025246012A0ADB394602A821
:1025800000F0F7FE002804D54FF0FF3025B0BDE87D
:10259000F08FBDF80200252807D100206861A861EE
:1025A000E86128626862A86205E00028C4D1E86A90
:1025B000ECE740F0010017F8011F2029F9D023298A
:1025C0000DD02B2904D02D2906D030290AD00CE0BB
:1025D00040F0020080B2EEE740F00400FAE740F07D
:1025E0000800F7E740F01000F4E72A290DD122682F
:1025F000111D216011686963002904D5494269638E
:1026000040F0040080B27F1C10E00021696307E005
:10261000696B414503D009FB0121303969637F1C97
:102620003A78A2F13001C9B20A29F1D339782E29BA
:102630001CBF4FF0FF3129631BD117F8011F2A2956
:1026400006D12268111D2160116829637F1C10E0EA
:102650000021296307E0296B414503D009FB0121D3
:10266000303929637F1C3A78A2F13001C9B20A29B6
:10267000F1D3288739780FF6345001F0CBF808B140
:1026800017F8010B8DF846009DF84600682804D124
:10269000387868280AD1622005E06C2806D138789D
:1026A0006C2803D171208DF846007F1C14A8286186
:1026B0003A781046253822D02038022840F281800E
:1026C000133800F0AA800B3800F04481401E00F05F
:1026D000ED80401E022874D9001F00F0E780401FE3
:1026E00044D0401E00F09980401E31D0C01E0CD056
:1026F000801E00F09280C01E00F08F804BE1686960
:10270000411C6961252181554FE19DF846006C28E7
:10271000216813D0081D20600868E8602A6B002A31
:1027200008D4002101F08EF800281ABFE968401A89
:10273000286B01E001F0B2F8A86136E1081D2060C5
:10274000096802A800F0C5F9002840F12E811FE1B8
:102750002168081D206008680021CDE9020114A845
:10276000E860782102A800F015FB1EE19DF8460004
:1027700062281FD068280DD06A2812D06C2802D099
:1027800071280ED074282168081D20600868E96A45
:1027900001600AE1E86A2268111D21601168088061
:1027A00003E1E86AC11723681A1D22601A68C2E9AA
:1027B0000001FAE0E86A2268111D216011680870C2
:1027C000F3E02068C01D20F007002060034603F1FD
:1027D00008002060D3E90001CDE90201002904D5F9
:1027E0006869411C69612D210DE0288F810704D59E
:1027F0006869411C69612B2105E0C00704D568693F
:10280000411C696120218155686914A94018E8605C
:10281000114602A800F04DFBC7E09DF846006C2869
:102820000FD0712801D06A280BD12068C01D20F07C
:1028300007002060034603F108002060D3E900018F
:1028400004E02168081D206008680021CDE902012C
:102850009DF8460068280CD0622806D0742801D064
:102860007A280CD1DDE9020106E0DDE90201C0B2FF
:1028700002E0DDE9020180B20021CDE9020195F814
:102880003800000760D5DDE9020109B900285BD0F6
:1028900042F02000782857D16869411C69613021D5
:1028A00081556869411C696182554DE09DF846007B
:1028B00062280CD0682810D06A281AD06C2824D03E
:1028C000712816D0742820D07A280CD01DE02168F9
:1028D000081D206091F900001BE02168081D2060A0
:1028E000B1F9000015E02168081D2060086800218A
:1028F00010E02068C01D20F007002060034603F1AF
:1029000008002060D3E9000104E02168081D206070
:102910000868C117CDE90201DDE9020100290EDBDB
:10292000288F810704D56869411C69612B210AE061
:10293000C00709D56869411C6961202103E0686905
:10294000411C69612D218155686914A94018E8600E
:10295000114607E79DF846006C2807D06869411CBE
:1029600069612268111D21601168CCE62168081D8B
:1029700020600868ADF804000020ADF806004FF0B4
:10298000FF30286301A902A800F0A3F800280CD5A5
:102990004FF0FF300AE06869411C696125218155CB
:1029A0001AB16869411C6961825500207F1C0028AA
:1029B0007FF4EAAD686B6969401A296A401AA9690F
:1029C000401A696A401AE969401AA96AA0EB010A2B
:1029D00095F83800400711D420208DF80000BAF196
:1029E000010F0BDBD346012200A902A800F0C1FCB5
:1029F00000287FF4C9ADBBF1010BF4D16A6914A9B9
:102A000002A800F0B6FC00287FF4BEAD30208DF89F
:102A10000000D5F820B0BBF1010F0ADB012200A9AC
:102A200002A800F0A6FC00287FF4AEADBBF1010BBC
:102A3000F4D1AA69E96802A800F09BFC00287FF4A1
:102A4000A3AD30208DF80000D5F824B0BBF1010F04
:102A50000ADB012200A902A800F08BFC00287FF409
:102A600093ADBBF1010BF4D1EA69A869E96841189B
:102A700002A800F07EFC00287FF486AD30208DF89F
:102A80000000D5F828B0BBF1010F0ADB012200A934
:102A900002A800F06EFC00287FF476ADBBF1010BBC
:102AA000F4D195F8380040077FF547AD20208DF828
:102AB0000000BAF1010FFFF640AD012200A902A803
:102AC00000F057FC00287FF45FADBAF1010AF4D1A1
:102AD00033E52DE9F04F93B007460C46D7F8349014
:102AE000B9F1000F48BF6FF0004900F0F2FEB96B7A
:102AF00000EB010A0FF6BC02D2E90001CDE90101A9
:102B000097F83C00400702D4BAF1410F05D20DF10D
:102B10000C0B4FF0400A00250AE0504601F0E9FC9A
:102B20005FEA000BF7D14FF0FF3030E1A9EB080965
:102B3000B9F1010FC0F2A08001AA21880DF10100B6
:102B400002F042F85FEA000804D4208828B9B8F1FE
:102B5000010802D54FF0FF3512E1C145C0F28C806B
:102B6000B86908EB00018A4577D2BD634042796AB3
:102B7000401AF969401AB96A401A396A401AF96A62
:102B8000451A97F83C0040070ED420208DF800002D
:102B9000012D09DB2E46012200A9384600F0E9FB91
:102BA0000028D7D1761EF6D1BA695946384600F0CA
:102BB000E0FB0028CED130208DF800007E6A012E87
:102BC00008DB012200A9384600F0D3FB0028C1D160
:102BD000761EF6D1FA693969384600F0CAFB00283A
:102BE000B8D130208DF80000BE6A012E08DB01222A
:102BF00000A9384600F0BDFB0028ABD1761EF6D107
:102C00003A6AF86939694118384600F0B2FB002881
:102C1000A0D130208DF80000FE6A012E08DB0122D1
:102C200000A9384600F0A5FB002893D1761EF6D106
:102C300097F83C0040070ED520208DF80000012DAC
:102C400009DB012200A9384600F093FB00287FF43D
:102C500081AF6D1EF5D10025BD6142460DF1010128
:102C6000B869584401F0BEFFB8694044B86134F80F
:102C7000020B00287FF45AAFB86BB969401A796A21
:102C8000401AF969401AB96A401A396A401AF96A51
:102C9000A0EB010897F83C00400710D420208DF8E5
:102CA0000000B8F1010F0ADB4446012200A93846B2
:102CB00000F05FFB00287FF44DAF641EF5D1BA69C8
:102CC0005946384600F055FB00287FF443AF3020CA
:102CD0008DF800007C6A012C09DB012200A938462E
:102CE00000F047FB00287FF435AF641EF5D1FA6988
:102CF0003969384600F03DFB00287FF42BAF3020C7
:102D00008DF80000BC6A012C09DB012200A93846BD
:102D100000F02FFB00287FF41DAF641EF5D13A6A46
:102D2000F86939694118384600F023FB00287FF420
:102D300011AF30208DF80000FC6A012C09DB012264
:102D400000A9384600F015FB00287FF403AF641E8D
:102D5000F5D197F83C00400710D520208DF80000F1
:102D6000B8F1010F0ADB012200A9384600F001FB8F
:102D700000287FF4EFAEB8F10108F4D1BD61BD6366
:102D800003A883451CBF584601F0DBFC284613B05E
:102D9000BDE8F08F2DE9FA4786B0054668690090D6
:102DA0009DF818006F2808BF082705D040F02000C4
:102DB000782814BF0A2710273C24D5E900010646CD
:102DC00089469DF81820642A01D0692A04D1002977
:102DD00002DA764269EB4909B9F1000F0DD166B903
:102DE000686B50B9082F3FD195F83C0000073BD5E0
:102DF000641E00983021215436E0A4F101084446B5
:102E0000F817CDE9047030464946DDE9042301F0A6
:102E10002BFFCDE90201B246DDE90223DDE9040121
:102E2000A0FB02695046801B3030C0B23A2803D361
:102E30009DF8181051390818009908F80100DDE9CB
:102E40000269B9F1000F00D126B128690099611813
:102E50008842D2D3082F07D195F83C00000703D54C
:102E60000098205C3028C3D1C4F13C00E86100998F
:102E700061182961696B884207DA081A6862A88FAD
:102E80004FF6EF710840A88710E000290ED595F89D
:102E90003C1001F01401102908D1A96BAA69891A04
:102EA0006A6A891A0C1A012CA8BF6C6208B0BDE8C6
:102EB000F0872DE9F24F8CB0054602AFD5E90089C5
:102EC000686B002848BF062005D405D141F02000DA
:102ED000672801D101206863C9F30A5040F2FF72EC
:102EE000904243D0012808DA284601F04BFF012820
:102EF000A4BF0023002680F2078140F2FE316A68F9
:102F000061F31E526A60461A404649460022002379
:102F100001F05AFF38BF89F0004936B247F29750A6
:102F200070437F4990FBF1F636B2C6F107077D4941
:102F3000012F41DBC246CB4690468946F80707D5AC
:102F40005046594642464B4601F056FF82468B4654
:102F50007F104046494642464B4601F04DFF8046B1
:102F60008946002FEAD1D046D94649E05FEA0930C8
:102F700002D1B8F1000F0ED00320E8619DF83000B7
:102F80006138C0B21A2811D30FF2344103222869E4
:102F900001F028FEC1E00320E8619DF830006138AF
:102FA000C0B21A2805D30FF22041EFE70FF20C410F
:102FB000ECE70FF21041E9E77F429246DFF868B193
:102FC000CDE9002114D0F80707D550465946DDE970
:102FD000002301F011FF82468B467F10DDE90001DE
:102FE000DDE9002301F008FFCDE90001002FEAD15F
:102FF0004046494652465B4601F0D0FF804689462E
:103000009DF8300040F0200ABAF1660F0CBF06F1BF
:103010000A000620696B4418142CA8BF1324302022
:103020008DF808000DF10907012C2EDB40464946BA
:1030300002F0D8F8034607F1080104220A27B3FB7F
:10304000F7FC07FB1C33303301F8013DBCFBF7F301
:1030500007FB13C7303701F8017D521EEED101F195
:103060000807083C012CDFDB02F0D2F802460B46D1
:103070004046494602F0DAF802460B4600202B494A
:1030800001F0BAFE80468946D0E70DF10900381AF2
:103090000DF109079DF80910302905D1401E761E53
:1030A00017F8011F3029F9D0BAF1660F04BF36B204
:1030B000711C04D0BAF1650F0CBF012100216A6BAD
:1030C0008B181BB29842B8BF03461BB2002B1BD40F
:1030D0001946814204DAC85D352828BF392000D25C
:1030E0003020CA19521E00E05B1E491E12F8014929
:1030F0008442F9D0392802D1C85D401CC855002946
:1031000002D57F1E5B1C761C36B200961BB23A4677
:103110009DF83010284600F00BF80DB0BDE8F08F98
:10312000A0860100000024400000F03F84D79741B2
:103130002DE9F04786B006468A4690461C46BDF902
:10314000385002F050F9406A90F80090776B012CEB
:1031500002DA01240FF274284AF02000662808D011
:10316000672840F08C806FF003018D4276DBBD4212
:1031700074DA6D1C66280AD096F83C00000702D469
:10318000BC42B8BF27462DB27F1B48BF002730691D
:10319000F1692DB2012D21DA4A1C30230B54012F85
:1031A00003DA96F83C10090702D502F80090521C89
:1031B000F261EF42B8BF7D422DB26942B162EF19B0
:1031C000A742B8BF3C4624B2346222464146F36966
:1031D000181801F007FD381BF062B3E00818AC4284
:1031E00016DA2246414601F0FDFCF1696118F161F1
:1031F000281BB062012F03DA96F83C00000705D5C2
:10320000306901F80090306A401C3062F76299E042
:103210002A46414601F0E6FCF0692818F061641B7B
:10322000012F03DA96F83C10090704D5411CF1611F
:10323000316900F8019024B2A742B8BF3C4624B2DD
:10324000224605EB0801F0693369C01801F0CAFC99
:10325000F0692018F061381BB06273E0BC4204DAF8
:1032600096F83C10090758BF27467F1E48BF002725
:10327000BAF1670F0CBF4FF0650A4FF0450AF169CC
:103280004A1C306918F8013B0B54012F03DA96F8F9
:103290003C10090702D502F80090521CF261012F80
:1032A00010DB641E24B2A742B8BF3C4624B22246BB
:1032B0004146F369181801F095FCF0692018F06197
:1032C000381BB062F069316900EB010808F801AB06
:1032D000002D5CBF2B2008F8010B03D52D2008F82A
:1032E000010B6D42002402AF2DB2012D0EDB0A222C
:1032F000294600A802F090F8019807F8010B009DFC
:10330000641C2DB2012DF2DA022C06DA4AF02000FC
:10331000652804BF302008F8010B1CB9302008F8DC
:10332000010B09E0012C07DB641E02A8205C303091
:1033300008F8010B012CF7DAF06931694018A8EBA5
:103340000000306296F83C0000F0140010280DD107
:10335000B069F1690818B16A0818316A0818F16A89
:103360000818B16B8842BCBF081A706206B0BDE88D
:10337000F08770B504460D4616460020002E10D08A
:1033800015F8011BE068A2689047E060002802D1B0
:103390004FF0FF3070BD206B401C20630020761E74
:1033A000EED170BD0000000000000000686A6C747F
:1033B0007A4C000000000000000000006E616E000A
:1033C0004E414E00696E6600494E4600300050F88E
:1033D000041B61B150F8042BD30744BFA9F10103CA
:1033E0009A18002342F8043B091FFAD1EFE770470F
:1033F000F8B505460E46002D2AD04C2002F014F8F0
:10340000040025D006FB05F7781C02F00DF82060BB
:1034100000281AD0381860600020A0632068A060DF
:10342000681E216806FB0010E060E56326644FF02B
:10343000FF306064A06404F1100002F015F804F19C
:10344000240002F011F82046F2BD204602F009F8EF
:103450000020F2BD10B54C2001F0E6FF04001BD0A7
:10346000002060602060A060E060A0630120E06355
:10347000002020644FF0FF306064A06404F110006D
:1034800001F0F2FF04F1240001F0EEFF00231A46E0
:103490001146204600F002F8204610BDF7B504465C
:1034A0000D461E46002704E0204600F054F902F0C5
:1034B000E6F802F073FBA06BE16B884213D2324650
:1034C0002946204600F000F9606A002807D004F180
:1034D000240002F00CFA012801D102F05AFB02F09C
:1034E00065FB0120FEBD0298002803D102F05EFBBF
:1034F0000020FEBD002F03D100A802F028FA01270A
:1035000002F054FB02F0B5F802F048FB606C10F1D9
:10351000010F01D100206064A06C10F1010F01D1F6
:103520000020A06402F042FB02A900A802F017FAF2
:103530000028204612D100F04EF90028B4D002999C
:1035400004F1100002F0AAF9204600F004F902F09C
:1035500096F80028ADD102F01CFBAAE700F0FBF8BA
:1035600002F08DF80020FEBDF8B505460E46144663
:103570001F4602F05DFBA86BE96B884218D23A4601
:103580003146284600F0A0F8A86C10F1010F0BD1CD
:10359000686A00280AD005F1240002F0A8F9002882
:1035A00004D00120206001E0401CA864012400E058
:1035B000002402F044FB2046F2BDF7B504460D4658
:1035C0001E46002704E0204600F0C5F802F057F838
:1035D00002F0E4FAA06B00282BD0E76829462046C9
:1035E00000F0A4F8002E14D1A06B401EA063206848
:1035F000002802D102F046FA60602069002814D049
:1036000004F1100002F073F901280ED102F0C1FAA2
:103610000BE0E760606A002807D004F1240002F0A4
:1036200066F9002801D002F0B4FA02F0BFFA0120D6
:10363000FEBD0298002803D102F0B8FA0020FEBDBA
:10364000002F03D100A802F082F9012702F0AEFAA0
:1036500002F00FF802F0A2FA606C10F1010F01D134
:1036600000206064A06C10F1010F01D10020A06463
:1036700002F09CFA02A900A802F071F90028204685
:103680001CD100F09CF800289DD02068002806D1AD
:1036900002F084FA606802F0F8F902F087FA029901
:1036A00004F1240002F0FAF8204600F054F801F08A
:1036B000E6FF00288CD102F06CFA89E700F04BF8A5
:1036C00001F0DDFF0020FEBD10B50446206C00288F
:1036D00008D12068002825D1606802F004FA002093
:1036E00060601FE0002A02460CD1A06802F0C6FA12
:1036F000206CA1684018A0606168884212D32068DD
:10370000A0600FE0E06802F0B9FA206C4042E16886
:103710004018E0602168884204D2206C4042616811
:103720004018E060A06B401CA06310BD0346084633
:103730001968002900D1704780B5196CDA688918BA
:10374000D9605A68914201D31968D9601A6CD96856
:1037500002F094FA01BD38B5044602F01FFA0AE0FF
:1037600004F1240002F0C3F8002801D002F024F98B
:10377000A06C401EA064A06C012802DB606A0028D7
:10378000EED14FF0FF35A56402F010FA02F006FA10
:103790000AE004F1100002F0AAF8002801D002F0BB
:1037A0000BF9606C401E6064606C012802DB2069CC
:1037B0000028EED16564BDE8314002F0F7B910B5DC
:1037C000044602F0EBF9A06B441EA441E40F02F0A2
:1037D000EDF9204610BD10B5044602F0DFF9A06BEC
:1037E000E16B884201D1012400E0002402F0DEF9FF
:1037F000204610BDF8B504460D4616461F4602F099
:1038000043FA3B4632462946204601B0BDE8F04027
:1038100002F052BA0278C9B28A421AB11CBF10F83B
:10382000012FF9E718BF002070478268521C8260A0
:10383000426832B10268531C036011704168491E2E
:1038400041607047C9B2830706D0521E22D310F8D8
:10385000013B9942F7D11FE0083A13D302F1040269
:1038600041EA012141EA014150F8043B121F21BF06
:103870004B40A3F1013C2CEA030C1CF0803FF3D039
:10388000C9B2001F083210F8013B521E28BF91EA4E
:10389000030FF8D818BF0120401E704700F1010344
:1038A000810704D010F8011B89B18107FAD10268A1
:1038B000B2F10131914311F0803F04BF50F8042F61
:1038C000F6E710F8011B11B110F8011BFBE7C01A55
:1038D000704780B502F0D8F9012002BDDFF8A806D4
:1038E000016899B94FF4803181604FF48051416093
:1038F0004FF0FF31C160016104214161DFF88C1696
:103900000422C1F8B821DFF8881601600120704751
:1039100001F1080313F0070308BF002307D001F1EA
:10392000080303F00703C3F1080303F00703591862
:10393000D21A8161C26042F001034B605118282203
:103940004A60DFF844160969C16170472DE9F0410A
:1039500001F1080414F0070408BF002407D001F1A6
:10396000080404F00704C4F1080404F00704611813
:1039700002F1080414F0070408BF002407D002F184
:10398000080404F00704C4F1080404F00704A518AF
:103990005A186C1AE41A43F003034B60AA4201D38D
:1039A00002F0AAB96E68F307FAD5102CF8D3836930
:1039B0009D4207D1C368E318C360826143F00100F0
:1039C000506042E143699D4208D18368E3188360F7
:1039D000426143F0010050609B5036E106F0030362
:1039E000012B40F0A080F308DB004FEAD30EBEF1BC
:1039F000200F26D2AF68D5F80CC06545D0D0BD42A7
:103A0000CED0674506D10668012707FA0EF7BE43F8
:103A1000066086E04FEA4E0600EB860606F1280EA9
:103A2000774503D0D0F810E07745B9D32836B445B0
:103A300002D00669B445B3D3C7F80CC0CCF80870FF
:103A40006FE0AF69EE68AE420AD0D5F808C0D0F892
:103A500010E0F445A4D3CCF80C60C6F808C024E00C
:103A600005F2140CDCF8006046B905F1100CDCF826
:103A70000060D6B102E0F446DCF8006006F2140EF5
:103A8000DEF80080B8F1000FF5D106F1100EDEF877
:103A90000080B8F1000FEED1D0F810E0F445FFF44B
:103AA0007FAF4FF0000ECCF800E0002F39D0D5F8F2
:103AB0001CC000EB8C0C0CF2301CDCF800E07545EF
:103AC0000BD1CCF800609EB946680127D5F81CC020
:103AD00007FA0CF7BE43466023E0D0F810C06745F4
:103AE000FFF45EAFD7F810C0AC450CBF3E617E61FD
:103AF000BEB1D0F810C06645FFF452AFB7612F6970
:103B000037B1D0F810C06745FFF44AAF3761BE61E6
:103B10006F6937B1D0F810C06745FFF441AF7761E6
:103B2000BE615D191C196B685B085B006B6044F03B
:103B300001035360A450E308202B1BD25D0000EB6F
:103B4000850505F228052E46102CFFF429AF012724
:103B500007FA03F304681C4204BF2343036004D044
:103B6000AE6800698642FFF41BAFAA60F2609660FF
:103B7000D5606AE0230A08BF002523D0B3F5803F53
:103B800028BF1F251ED2A3F580752D0C05F0080552
:103B9000AB40A3F58056360C06F00406B340A3F5FF
:103BA00080473F0C07F00207C5F10E05AD1BED1B6A
:103BB000BB4005EBD333DD1D24FA05F505F0010507
:103BC00005EB430500EB850303F23013D5610026B6
:103BD00056611661012707FA05F64768374207D193
:103BE00046EA070444601A609361D26092602CE058
:103BF0001B681F2D0EBF00256D08C5F1190504FABD
:103C000005F500E033465E68F608F600A6420ED0E1
:103C1000EE0F03EB860606F110076D003E68002EDE
:103C2000F0D100698742FFF4BBAE3A60DCE79C68E4
:103C300000698342FFF4B4AE8442FFF4B1AEE260A7
:103C40009A609460D3600020906101F10800BDE8A3
:103C5000F0812DE9FE4F0446A56904F2BC102E4602
:103C600001688E4203D3426851188E4202D38068A5
:103C70000028F5D14168006801EB0008A8F12F0089
:103C800000F1080111F0070108BF002107D000F181
:103C9000080101F00701C1F1080101F0070101EB82
:103CA000000A05F11000824538BFAA460AF1080B48
:103CB0000AF1180900270198A0F12802009920466E
:103CC000FFF726FE1BF0070022D11B20CAF80400D4
:103CD00004F2BC10B0E80E10ABE80E10ABF1100B04
:103CE0000098C4F8BC010198C4F8C0010298C4F857
:103CF000C801C4F8C4B100E0814609F104000721FD
:103D0000C9F804107F1C011D4145F5D3022F01DACB
:103D100001F0F2BFAA4500F09380AAEB060041191A
:103D20004A68520852004A6040F0010169604051FF
:103D3000C108202919D24A0004EB820202F22802AB
:103D400013461028E4D3012606FA01F02168014247
:103D500006D1084320609560DD60AB60EA606FE0EB
:103D6000936820698342F6D2D2E7010A08BF002295
:103D700023D0B1F5803F28BF1F221ED2A1F580724B
:103D8000120C02F008029140A1F580531B0C03F0C5
:103D900004039940A1F58046360C06F00206C2F1F4
:103DA0000E02D21A921BB14002EBD131CA1D20FA89
:103DB00002F202F0010202EB410204EB820101F285
:103DC0003011EA6100236B612B61012606FA02F3D0
:103DD00066681E4207D143EA060060600D60A96173
:103DE000ED60AD602CE009681F2A0EBF002252086A
:103DF000C2F1190200FA02F200E019464B68DB0832
:103E0000DB0083420ED0D30F01EB830303F11006D6
:103E100052003368002BF0D120698642FFF478AF5E
:103E20003560DCE7886822699142FFF471AF904207
:103E3000FFF46EAFC5608D60A860E9600020A861E6
:103E400000F054BBF8B504460D464F4E306808B933
:103E5000FFF744FD01F056FF010000F091800A6871
:103E600011F1010F00F08C80D4F8B0011018C4F8E3
:103E7000B001D4F8B401D4F8B031984238BF184634
:103E8000C4F8B401A06968BB206908B1814200D2BE
:103E90002161C4F8BC11C4F8C0210020C4F8C801D5
:103EA000306860624FF0FF3020622046202300F22D
:103EB0002806F660B66008305B1EF8D133488442AD
:103EC00004D1283A2046FFF723FD48E054F8040CBB
:103ED000C00814EBC00008385118091AA1F12802D3
:103EE0000146EFE704F2BC10034600E09B68BBB15B
:103EF0005E681F68F619B142F8D11E7B36070FD4F1
:103F00003E46A769B7420BD35F68D4F818C0BE1904
:103F1000B44505D2D0195860E0681218A169D1E7FC
:103F20002369994238BF21610346501800E09B681D
:103F30008BB11E688642FAD1187B00070BD430463D
:103F400019605E6892195A602B460246204601B0FD
:103F5000BDE8F040FAE400232046FFF77AFEE0686F
:103F600085420DD2401BE060A1696A18A26140F051
:103F70000100506045F00300486001F10800F2BD07
:103F80000020F2BD00000000B8B300208CA7002084
:103F90006859883C2DE9F04100224B420C0A08BFC9
:103FA000002423D0B4F5803F28BF1F241ED2A4F5DF
:103FB00080752D0C05F00805AC40A4F58056360C34
:103FC00006F00406B440A4F580473F0C07F0020752
:103FD000C5F10E05AD1BED1BBC4005EBD434E51D52
:103FE00021FA05F505F0010505EB440400EB840515
:103FF000D5F8305155B31F2C0EBF00266608C6F108
:10400000190601FA06F6002700E07600D5F804C08C
:104010004FEADC0C4FEACC0CACEB010C9C4502D215
:104020002A4663467BB1D5F814C04FEAD67E05EB2D
:104030008E052D69BCF1000F02D0AC4518BF674654
:10404000002DE2D13D4675BB002A3DD1012505FA80
:1040500004F4640065422C4345682C4000F0518113
:1040600065422C40651E2C0B04F0100425FA04F662
:10407000750905F00805EE40B70807F00407FE4093
:104080004FEA560C0CF0020C26FA0CF6C6F3400E62
:104090002C193C196444744426FA0EF52C1900EBD3
:1040A0008404D4F830517DB100E025466C68E40802
:1040B000E400641A9C423CBF23462A462C69002C2B
:1040C000F3D16D69002DF1D1002A00F01A818468C6
:1040D000641AA34280F0158116460469A64206D3ED
:1040E0008C18CD185768FF08FF00AF4201D001F0CF
:1040F00003BEA642FBD29769D66896420AD0D2F890
:1041000008C0D0F810E0F445F1D3CCF80C60C6F844
:1041100008C023E002F2140CDCF8006046B902F19A
:10412000100CDCF80060CEB102E0F446DCF8006070
:1041300006F2140EDEF80080B8F1000FF5D106F19A
:10414000100EDEF80080B8F1000FEED1D0F810E0CC
:10415000F445CCD34FF0000ECCF800E0002F35D062
:10416000D2F81CC000EB8C0C0CF2301CDCF800E028
:1041700072450BD1CCF8006096B946680127D2F899
:104180001CC007FA0CF7BE4346601FE0D0F810C011
:104190006745ACD3D7F810C094450CBF3E617E6133
:1041A000A6B1D0F810C06645A1D3B76117692FB189
:1041B000D0F810C067459AD33761BE6157692FB1F7
:1041C000D0F810C0674592D37761BE61102B08D23A
:1041D00045F003005060A818416841F001014160BA
:1041E0008CE041F00301516043F0010161601B511B
:1041F000D908202918D24B0000EB830303F22803CF
:104200001E46012505FA01F105680D4204BF294348
:10421000016004D09E6800698642FFF468AF9C602C
:10422000F460A660E36069E0190A08BF002623D0A5
:10423000B1F5803F28BF1F261ED2A1F580752D0C39
:1042400005F00805A940A1F58056360C06F00406D5
:10425000B140A1F580473F0C07F00207C5F10E05FC
:10426000AD1BED1BB94005EBD131CD1D23FA05F592
:1042700005F0010505EB410600EB860101F2301166
:10428000E6610025656125610125B54047682F423B
:1042900007D13B462B4343600C60A161E460A460FE
:1042A0002CE009681F2E0EBF00257508C5F1190501
:1042B00003FA05F500E031464E68F608F6009E4226
:1042C0000ED0EE0F01EB860606F110076D003E687A
:1042D000002EF0D100698742FFF409AF3C60DCE7B3
:1042E0008B680569A942FFF402AFAB42FFF4FFAE51
:1042F000DC608C60A360E1600020A06102F1080036
:1043000000E00020BDE8F0812DE9F041426813464D
:104310005B421A40531E1A0B02F01002D3405C0994
:1043200004F00804E3409D0805F00405EB405E0836
:1043300006F00206F340C3F34007A218AA18B21809
:10434000BA18FB409A1800EB8202D2F8304123469B
:104350006268D208D200521A07E06568ED08ED00E5
:104360006D1A95423CBF2A4623462569002D14BF8D
:104370002C466469002CF0D11E460469A64206D37F
:10438000CC188D185F68FF08FF00AF4201D001F024
:10439000B3BCA642FBD29F69DE689E420AD0D3F826
:1043A00008C0D0F810E0F445F1D3CCF80C60C6F8A2
:1043B00008C023E003F2140CDCF8006046B903F1F6
:1043C000100CDCF80060CEB102E0F446DCF80060CE
:1043D00006F2140EDEF80080B8F1000FF5D106F1F8
:1043E000100EDEF80080B8F1000FEED1D0F810E02A
:1043F000F445CCD34FF0000ECCF800E0002F35D0C0
:10440000D3F81CC000EB8C0C0CF2301CDCF800E084
:1044100073450BD1CCF8006096B946680127D3F8F4
:104420001CC007FA0CF7BE4346601FE0D0F810C06E
:104430006745ACD3D7F810C09C450CBF3E617E6188
:10444000A6B1D0F810C06645A1D3B7611F692FB1DE
:10445000D0F810C067459AD33761BE615F692FB14C
:10446000D0F810C0674592D37761BE61102A08D298
:1044700045F003005860E818416841F001014160CF
:1044800030E041F00301596042F0010161601251D6
:1044900087682FB341694FEAD70CBCF1200FBFF4F6
:1044A00076AF4FEA4C0500EB850505F228052E4650
:1044B000102FFFF46CAF012707FA0CF7D0F800C0FB
:1044C0001CEA070F04BF47EA0C07076004D0AE6878
:1044D0000769BE42FFF45BAFA960F1608E60CD60FA
:1044E0008260446103F10800BDE8F08103B0BDE8DB
:1044F000F08FF8B50446012001F039FCF52C80F06E
:10450000D3800B2C31BF102404F10B00C408E4004D
:10451000E308DFF8B006016821FA03F515F003029D
:1045200033D0EA4302F00102D3185A0000EB8202B2
:1045300002F22805AA68DC005668F608F600A642D2
:1045400001D001F0D9BB9668AA42FAD0B242F8D0A5
:104550005768FF08FF00A742F3D1B54205D10125F6
:1045600005FA03F39943016004E000698642E8D349
:10457000AE60F56044F003005060A018416841F05F
:104580000101416002F10805D6E08268A24280F094
:104590009E80002D00F07F80012202FA03F6760053
:1045A00005FA03F3754235432B405D422B405D1EF7
:1045B0002B0B03F0100325FA03F6750905F0080527
:1045C000EE40B70807F00407FE404FEA560C0CF027
:1045D000020C26FA0CF6C6F3400EEB18FB186344E7
:1045E000734426FA0EF5ED186B0000EB830303F21B
:1045F0002806B368EF00D3F804C04FEADC0C4FEA9A
:10460000CC0CBC459DD1D3F808C0B34299D06345CA
:1046100097D0664502BF02FA05F5A943016006D0AE
:1046200001698C458DD3C6F808C0CCF80C60391BE5
:1046300044F003055D60E41841F00105656009512F
:1046400086681EB34569F708202FBFF47AAF4FEA9A
:10465000470C00EB8C0C0CF2280CE646102EFFF4F5
:1046600070AFBA400668164204BF3243026005D0FC
:10467000DCF808E002699645FFF463AFCCF8085017
:10468000CEF80C50C5F808E0C5F80CC08160446154
:1046900003F1080550E0416800293AD02146FFF7B0
:1046A00033FE050013D047E014F1400F28BF4FF050
:1046B000FF340CD204F10B00C408E400DFF8040559
:1046C000416821B12146FFF765FC050034D1DFF8D0
:1046D000F4048268A2421CD3131B4169102B0AD335
:1046E00062184261836043F0010050609B5044F0C7
:1046F000030048600AE000238360436142F0030046
:1047000048605018426842F00102426001F1080519
:1047100012E0C1688C420BD2091BC1608269A318E8
:10472000836141F00101596044F00300506029E7C2
:104730002146FFF787FB0546012001F043FB284691
:10474000F2BD002800D17047F8B5A0F1080401209F
:1047500001F00DFBDFF86C542A6994421ED36368A4
:1047600003F00300012819D0D808C0000119DE07A2
:1047700029D4266813F0030300F0E2803018734256
:104780001C1994420AD36B699C4200F0CA80F3085A
:10479000202B67D2A668E768BC4201D101F0ACBA11
:1047A000B442FBD0D4F804C04FEADC0C4FEACC0C86
:1047B000BCEBC30FF2D1BE4243D12A68012606FAF0
:1047C00003F39A432A608C42E8D24A68D307E5D5BE
:1047D000930700F15481AB69994240F0B580E968D4
:1047E0004018E860AC6140F00101616069698C4289
:1047F00002D100216961A960E969814280F0A0804D
:10480000DFF8BC03006808B9FFF768F8A86900285A
:1048100000F09680E96829290BD305F2BC121368D1
:10482000984203D35468E318984202D39268002A4E
:10483000F5D1E869884280F083804FF0FF30E8616D
:104840007EE05B0005EB830303F1280C664501D095
:104850009642A3D328339F4201D097429ED3F7605C
:10486000BE60B0E7A669E368A34205D0A768974297
:1048700094D3FB609F601DE004F214073B6833B9DA
:1048800004F110073B68ABB101E067463B6803F2F7
:10489000140CDCF800E0BEF1000FF6D103F1100CAF
:1048A000DCF800E0BEF1000FEFD19742FFF476AFE5
:1048B00000223A60002E86D0E26905EB820202F205
:1048C00030121768BC4208D113607BB96A680123B3
:1048D000E669B3409A436A6075E72A699642FFF435
:1048E0005DAF3269A2420CBF33617361002B3FF4AC
:1048F0006AAF2A699342FFF451AF9E6122692AB1DF
:104900002E69B242FFF44AAF1A6193616269002ACC
:104910003FF459AF2E69B242FFF440AF5A61936140
:1049200051E70A7902F00302032A7FF44CAFA86032
:104930004A68520852004A6040F00101616000512B
:10494000012001F03FFAF1BD6B69994204D1A968D9
:104950004018A8606C61EFE7D208D2001018D308A5
:10496000202B24D28E68CF68B9423FF417AFB142F2
:104970003FF414AFBE4205D1296801229A40914309
:10498000296073E0590005EB810101F1280296428C
:1049900003D02A699642FFF401AF28318F4203D039
:1049A00029698F42FFF4FAAEF760BE605EE08B6962
:1049B000CA688A4207D08E682F69BE42FFF4EEAE05
:1049C000F26096601EE001F21406326832B901F11D
:1049D00010063268B2B101E03E46326802F21407B6
:1049E000D7F800C0BCF1000FF6D102F11007D7F8DC
:1049F00000C0BCF1000FEFD12F69BE42FFF4CEAE74
:104A00000027376093B3CE6905EB860606F23016B1
:104A10003768B9420BD1326016468EB96A680123F5
:104A2000C96903FA01F122EA010169601EE02E69F9
:104A3000B342FFF4B3AE1E698E420CBF1A615A61D5
:104A4000A2B12E69B242FFF4A9AE93610B692BB1FA
:104A50002E69B342FFF4A2AE13619A61496929B18C
:104A60002B699942FFF49AAE51618A6140F00101CD
:104A70006160005169698C4208D1A86060E7520802
:104A800052004A6040F0010161600051C1082029D4
:104A90001BD24A0005EB820202F2280213461028BC
:104AA000FFF47CAE012606FA01F02968014204BF3A
:104AB0000843286004D0936828698342FFF46EAEEF
:104AC0009460DC60A360E2603AE7010A08BF00225C
:104AD00023D0B1F5803F28BF1F221ED2A1F58072DE
:104AE000120C02F008029140A1F580531B0C03F058
:104AF00004039940A1F58046360C06F00206C2F187
:104B00000E02D21A921BB14002EBD131CA1D20FA1B
:104B100002F202F0010202EB410205EB820101F216
:104B20003011E261002363612361012606FA02F37A
:104B30006E681E4207D143EA060068600C60A161FE
:104B4000E460A4602CE009681F2A0EBF002252080E
:104B5000C2F1190200FA02F200E019464B68DB08C4
:104B6000DB0083420ED0D30F01EB830303F1100669
:104B700052003368002BF0D128698642FFF40EAE54
:104B80003460DCE788682A699142FFF407AE9042FE
:104B9000FFF404AEC4608C60A060E1600020A061FE
:104BA000286A401E28627FF4CBAED5F8C40118B93C
:104BB0004FF0FF302862C3E680680028FCD1F7E799
:104BC000B8B300208CA7002070B504460D461646E9
:104BD00001F05AF8324629462046BDE8704001F0FF
:104BE0005DB800004AB38B0707D0521E11F8013B95
:104BF00000F8013B21D08B07F7D183071ED1103A73
:104C000007D330B4B1E83810103AA0E83810F9D220
:104C100030BC530724BFB1E80810A0E8081044BF17
:104C200051F8043B40F8043BD20724BF31F8022B73
:104C300020F8022B44BF0B7803707047083A07D363
:104C4000B1E80810083A40F8043B40F804CBF7D22A
:104C50005307E4E713F0004C03D55B42524263F183
:104C600000039CEA210C15D11B4229D109424CD1E9
:104C70002AB18446B0FBF2F002FB10C2704701F08B
:104C8000AFB8FCD30022002370470B0002000021C4
:104C90000020704710B5644603D34942404261F199
:104CA0000001FFF7E1FF640004D34942404261F193
:104CB0000001244203D55B42524263F1000310BD60
:104CC000904271EB030CE0D370B5B1FA81F4B3FA02
:104CD00083F52C1BA340C4F1200532FA05F63343BB
:104CE000A2405FF00046E64002E05B085FEA320265
:104CF000841A71EB030524BF204629467641F4D37C
:104D000002000B003000002170BD012AB9D970B536
:104D1000140C20D0B1FA81F4B2FA82F5C4F1200467
:104D20006419B4F12006D6D3B2405FF00044F440D9
:104D3000002502E052085FEA3303C61A71EB020E47
:104D400024BF3046714664416D41F3D302000B002D
:104D50002000290070BD0C46B1FBF2F102FB1145A9
:104D60002D0445EA1045B5FBF2F402FB145580B260
:104D700040EA0545B5FBF2F002FB105240EA044060
:104D800070BD000070B4416801F0004201210D4B7C
:104D900044681C40446001D104686CB104684568F3
:104DA000E60F46EA4505456064000460491EEC02D2
:104DB000F4D544682340436043681A434260084680
:104DC00070BC7047FFFF0F004FF4001C1CEB410F3D
:104DD00094BF1CEB430F09E041EA030C50EA4C0C72
:104DE00052EA0C0C03D2994208BF9042704714BF9C
:104DF0008B42824270470000B0B581EA030C0CF090
:104E0000004C40F2FF7515EA11541DBF15EA135707
:104E1000AC42AF4239E0E41923EA455343F480132E
:104E2000C90241F0004141EA505EC7021100A7FBF0
:104E3000020200284FF00000EEFB01204FF00001BD
:104E4000E3FB072118BF42F001024018002149414D
:104E5000E3FB0E01A4F580640F0302D2520040412F
:104E6000494154F101046CDD470872F1004250F1F0
:104E7000000051EB0451A1F580115CBF41EA0C0127
:104E8000B0BD4CEA05510020B0BD05EA1357AC4255
:104E900014BFAF4241E050EA410E1CBF52EA430E3C
:104EA00002E061460020B0BD24423C441BD15FEAD1
:104EB000070EF6D0090302BF01460020AEF1140E22
:104EC000B1FA81F7AEEB070401FA07FE0C37C7F120
:104ED000200100FA07F7C8404EEA000E23EA4553C6
:104EE00043F48013A2E733F00043B3FA83F704BF1F
:104EF000B2FA82FE77440B3FE41BB7F1200E2FBFBE
:104F000002FA0EF3BB40C7F1200E22FA0EFE38BFA4
:104F100043EA0E03BA40641C82E750EA410E14BF14
:104F200052EA430E6FF000014FF4001717EB430FE6
:104F30008ABF194617EB410FB5E74CEA055100202F
:104F4000B0BDD4F10104B4F120070FDAC4F1200799
:104F5000520828BF42F0010210FA07F501FA07F7DC
:104F6000E1BF2A43E0403843E1400FE0352C98DCB4
:104F7000C7F1200452EA400220FA07F218BF42F0BB
:104F8000010231FA07F0A1400A43002172F1004208
:104F900050F1000051EB0C01B0BD0000F0B540F243
:104FA000FF7581EA030C0CF0004C15EA11541DBF8B
:104FB00015EA1357AC42AF42E5E0BC41C1F313011F
:104FC000C3F31303801A994143F4801304D2641E7F
:104FD0004000494180185941C90241EA5051B1FB92
:104FE000F3F603FB1611A2FB0675D7EBC020A9410F
:104FF00002D2761E80185941C90241EA5051B1FBD4
:10500000F3FE03FB1E11A2FB0E75D7EBC020A941D6
:1050100003D2AEF1010E80185941890241EA905144
:10502000760546EA8E2EB1FBF3F603FB1611A2FBC2
:105030000675D7EB8020A94102D2761E801859410F
:10504000C90241EA50514EEA060EB1FBF3F603FBEA
:105050001611A2FB0675D7EBC020A94102D2761E1D
:1050600080185941C90241EA5051B1FBF3F703FBE3
:105070001711A2FB0735D3EBC020A94167F1000748
:105080000CBF004247F0010766F3D5274FEA1E31F7
:10509000B80814F5806412DDBD0775F1004250EBCD
:1050A0000E5051EB045111F5801F5CBF41EA0C0119
:1050B000F0BD4CF07F6141F0E0410020F0BDBD0744
:1050C0006D0840EA0E5041F48011D4F10104B4F1AE
:1050D00020060ADAC4F120060200E04001FA06F3D5
:1050E000E1401843B24015430EE0342C13DCC6F106
:1050F000200445EA40056D0820FA06F2154321FA1E
:1051000006F0A1400D43002175F1004250F100006E
:1051100051EB0C01F0BD00205FEA0C01F0BDCFB9EE
:1051200092185B41B3FA83F704BFB2FA82F6BF1953
:105130000B3FB7F120062FBF02FA06F3BB40C7F1C1
:10514000200622FA06F638BF3343BA401CB1E419F0
:10515000641E33E77F4231F00041B1FA81F404BFAD
:10516000B0FA80F6A4190B3CB4F120062FBF00FA68
:1051700006F1A140C4F1200620FA06F638BF3143FB
:10518000A0403C1B1AE7AC421ABF05EA1357AF42D6
:1051900012E050EA41061CBF52EA4306BFE750EA5C
:1051A0004107304661461CBF41EA0551F0BD52EA55
:1051B000430C08BFC143F0BD00204FF4001616EBAE
:1051C000410F98BF16EB430F08BF16EB410F24BFEA
:1051D000C14305E016EB430F0CBF61464CEA055195
:1051E000F0BD0000400D40EAC12049000CD240F063
:1051F0000040490DA1F58061491C05D4D1F11F0182
:1052000054BFC840C01770474FF0000070470000FF
:10521000010009D0B0FA80F18840C91CC1F5846151
:10522000090501EBD02140057047000070B44FF034
:10523000004591EA030F44BF6B4000F0DCBD841AC7
:1052400071EB030604D26E40001BB1411219734189
:105250004FF4001C1CEB410F34BF7CEB430684E091
:105260000C0DA4EB1356362E7DDC012E43DC45EAF3
:10527000C32343EA525312BFD20292025B082405B1
:1052800045EAC12141EA5051D2EBC020994125D4D1
:1052900007D1B0FA80F610FA06F164D0002020366B
:1052A00008E0B1FA81F6B140C6F1200220FA02F21C
:1052B0001143B0404FEAF474B4EB465434F00106A5
:1052C0004FEA74040AD8D6F50016760D04F00044AF
:1052D000F04061FA06F25040F1404840C00A40EA0E
:1052E000415021F0004128BF5FEA500550F1000015
:1052F00044EBD12137E045EAC323DB0A45EAC1216B
:10530000C90AB6F120050EDD42EA0242120CC5F1CF
:10531000200603FA06F6EB4042EA06056D42984184
:1053200061F100010DE062FA06F5F240554063FAC2
:1053300006FC82EA0C02F3405A406D42904161EB58
:10534000030111F4801F05D1641E620502D06D00B7
:105350004041494121F48011430875F1004350F167
:10536000000041EB045170BC70471CEB410F15D29B
:1053700023F0004352EA43060BD04FEA4C0CBCEB3F
:10538000410F04D80C0D661E342EB7DDEBE7801AF2
:10539000994150EA410608BF0021E4E708BF1CEB31
:1053A000430F28BF6FF00001DDE7000080B5134810
:1053B00000F08BFD0FF24801016041608160C16027
:1053C0000161416181610FF23C0242628162C1620E
:1053D000016341630FF2300282630FF23402C26351
:1053E0000164416401BD10B5044800F06EFD04463F
:1053F000206808B9FFF7DAFF204610BD2809002011
:10540000000000002E00000066616C736500000063
:10541000747275650000000091FBF2F303FB12113A
:10542000C0E900317047000038B50446002514F08B
:10543000070004D004F1080004F00701441A00F04A
:1054400018F9084801686218B2F5305F05D2914238
:1054500003D2091801F10805026000F010F928468E
:1054600032BD7047D80A002000F1080141604FF0BA
:10547000FF31816000F10801C1600161002101601C
:105480007047002101617047426853684B60436870
:105490008B60536899605160416008610168491CE4
:1054A0000160704710B40A6812F1010F01D103695D
:1054B00007E000F1080300E05B685C682468A24232
:1054C000FAD25A684A6091608B605960086101683D
:1054D000491C016010BC7047416882688A6081681D
:1054E00042684A6001694A68824201D182684A6022
:1054F000002202610868401E086070472DE9F14FE4
:1055000082B00F46904699460C9C0D9D0E99DDF891
:105510003CA0404600F09DFA06004FD0306B00EBF7
:105520008800A0F1040BCDF800805346224639468E
:10553000304600F04DFA4A4602994FEADB00C000BF
:1055400000F008FB306000F029FBDFF8D875B86A7E
:10555000401CB862B86A012805D1DFF8CC050660A6
:1055600000F053FA09E0386B002806D1DFF8B805DF
:105570000168C96A8C4200D30660F86AF16A884201
:1055800000D20846F862DFF8A005D0F880107164F8
:10559000491CC0F88010416FF26A914201D2F16A51
:1055A0004167311DF26A02EB820300EB8300001DAC
:1055B000FFF76AFF012700F0F9FA01E04FF0FF372B
:1055C000012F0FD1002D00D02E60DFF85805006BA1
:1055D000002807D0DFF850050068C06AA04201D259
:1055E00000F0D7FA3846BDE8FE8F38B505460020F2
:1055F000002D1AD000F03DF8DFF82C45206F2D1853
:105600002068001DFFF768FF20684560206F854215
:10561000206804D2011DE06EFFF744FF03E0011D86
:10562000A06EFFF73FFF00F02AF8002801D100F03C
:10563000B0FA31BD00B585B0002003900290019012
:105640000090034646220FF2F041DFF8E404FFF732
:1056500055FF01280BD100F0EBFADFF8C804012157
:105660000163DFF8C4040021016700F07FFA05B090
:1056700000BDDFF8B404816F491C816770472DE9D4
:10568000F041002400F08AFADFF89C54A86F401E15
:10569000A867A86F002848D1DFF88864B06A00289E
:1056A00043D0274620E008F11800FFF715FF08F166
:1056B0000400FFF711FF686FD8F82C10884201D260
:1056C0000846686708F10401D8F82C0000EB800256
:1056D00005EB8200001DFFF7D7FED8F82C002968E3
:1056E000C96A884200D301273068002803D0F068D7
:1056F000D0F80C8000E0A046B8F1000FD3D1E86FDD
:10570000002805D107E000F01FF8E86F401EE867A9
:10571000E86F0028F7D1012F02D0706B012804D167
:1057200001240020706300F034FA00F03FFA2046B4
:10573000BDE8F08110B500F031FADFF8EC03046F3A
:1057400000F034FA204610BD38B5DFF8DC43A06F16
:10575000002837D1206F401C2067206F002829D1F6
:10576000A06EE16EA166E066DFF8C8030168491C1F
:1057700001601FE00025002D29D0206F6968884254
:1057800025D3281DFFF7A8FEA86A002803D005F13D
:105790001800FFF7A1FE606FE96A884201D208464F
:1057A0006067291DE86A00EB800204EB8200001D9F
:1057B000FFF76AFEA06E00680028DBD0A06EC0680C
:1057C000C568D8E7E06F401CE06700F0E1FBE06FE0
:1057D000002801D100F0DCFB31BD10B5DFF84843F3
:1057E000A06F002804D0DFF83C030121416310BD05
:1057F0002068006B21680968884205D3206800F1A1
:105800003401206800F06FFB14220FF2343120685D
:10581000006B00F001FD002809D0206800F1340180
:10582000206800F060FB02E0606F401E606714209B
:10583000616F00FB014149680029F5D0616F00FBF1
:105840000140001D41684968416000F10802914231
:1058500001D1496841604068C0682060B148416C2E
:1058600000291AD0816C2268526C914215D0816B4C
:105870000831026C91420ED22168496C8164826BBE
:10588000236F1360826B121D8263826B1160816BC8
:10589000091D816310BD0021416410BD38B50D465E
:1058A000A14C21681831FFF7FDFD2068001DFFF7AE
:1058B00013FE15F1010F06D12068011D9B48BDE8BC
:1058C0003440FFF7E1BD206F281821684860216F40
:1058D0008842206805D2011DE06EBDE83440FFF724
:1058E000E1BD011DA06EBDE83440FFF7DBBD38B55A
:1058F0000168002902D0C068C56800E0002505F1F4
:105900001800FFF7E9FD884CA06F002812D1281D70
:10591000FFF7E2FD606FE96A884201D208466067DE
:10592000291DE86A00EB800204EB8200001DFFF7EE
:10593000ABFD04E005F118017A48FFF7A5FDE86A20
:105940002168C96A88428041C043C00F32BD79498D
:10595000096801607449096F41607047000038B5FB
:1059600004460D4600F01AF9286810F1010F01D124
:1059700000241DE06C486F4909682268914205D0F7
:10598000016F6268914201D3012411E0016F6268E6
:10599000891A2A6891420AD21146006F081A616872
:1059A000081828602046FFF7D2FF002400E00124F9
:1059B00000F0FCF8204632BD5A480121416370478F
:1059C00080B500F045F800F0E4F800F0B4FAF8E72C
:1059D00038B504461546102204F1340000F04EFCA0
:1059E000002084F84300052D00D30425E562A5645A
:1059F000201DFFF746FD04F11800FFF742FD24616A
:105A0000C5F10500A061646231BDF8B50024464DC2
:105A100007E004EB840005EB8000001DFFF724FD88
:105A2000641C052CF5D305F284042046FFF71CFD09
:105A300005F298063046FFF717FD3A4F3846FFF754
:105A400013FD07F11400FFF70FFDAC66EE66F1BD24
:105A5000704738B504464C20FFF7E6FC05000FD030
:105A6000A4002046FFF7E0FC2863002804D1284664
:105A7000FFF7F7FC002503E02246A52100F034FCE7
:105A8000284632BD28480068704770B50446264D48
:105A9000E06A2968C96A884224D22868C06AC0F1CD
:105AA0000500A06114266069E16A06FB0151091D29
:105AB000884214D1201DFFF70FFD2868C06AE062FC
:105AC000686FE16A884201D208466867211DE06A72
:105AD00006FB0050001DBDE87040FFF7D5BC2868EC
